:020000040000FA
:100000000C9431020C9452020C9452020C94520241
:100010000C9452020C9452020C9452020C94520210
:100020000C9452020C94583E0C9452020C94A0383A
:100030000C94E53D0C9452020C9452020C94520222
:100040000C9452020C94F8380C9452020C94520204
:100050000C9452020C9452020C9452020C94E2380A
:100060000C9452020C94143D0C94BA3D0C94520220
:100070000C9452020C9452020C9452020C945202B0
:100080000C9452020C9452020C9452020C94C03CF8
:100090000C9452020C9452020C9452020C94520290
:1000A0000C9452020C9452020C9452020C94520280
:1000B0000C9452020C9452020C9452020C94520270
:1000C0000C9452020C9452020C9452020C94FC3C7C
:1000D0000C94D13C0C9452020C9452020C94520297
:1000E0000C945202084AD73B3BCE016E84BCBFFD44
:1000F000C12F3D6C74319ABD56833DDA3D00C77FF8
:1001000011BED9E4BB4C3E916BAAAABE0000008090
:100110003F05A84CCDB2D44EB93836A9020C50B91F
:10012000918688083CA6AAAA2ABE000000803F004B
:100130000C949E3D0C94A23D0C94E0430C94174407
:100140000C94622A0C94983D0C945C440C943944B1
:100150000C948A3D0C94D8430C94963D0C94742ACC
:100160000C94662A0C94A83D0C94482A0C944444A0
:100170000C94673D0C94D2430C944D440C949C3DDC
:100180000C94A72A0C947E3D0C9405440C9479445D
:100190000C94A03D0C94312A0C94D7290C94943DD6
:1001A0000C9441440C94552A0C94F5430C94C12AA8
:1001B0000C94DB430C94803D0C94242A0C94923DC7
:1001C0000C94903D0C94ED430C9402440C94E34346
:1001D0000C9456440C94A43D0C9470440C94234409
:1001E0000C94A63D0C945A400C94172A0C947E2A29
:1001F0000C940E440C94863D0C94882A0C943B2A53
:100200000C9465440C94922A0C94B42A0C940A2AF7
:100210000C944D280C948E3D0C942D440C948C3DE4
:100220000D0A4772626C20312E3165205B2724272E
:1002300020E88EB7E58F96E5B8AEE58AA95D0D0A90
:1002400000244E005B4F50543A005B5645523A3101
:100250002E31652E32303137303131343A005B5A2D
:10026000706F733A005B544C4F3A005B4739323A37
:10027000003330003238005B4700204700204D003B
:1002800020530020460020540033382E005B4743A3
:100290003A47005BE5B8AEE58AA93A242420242336
:1002A00020244720244920244E2024783DE580BC8A
:1002B00020244E783DE8A18C20244A3DE8A18C20E2
:1002C00024534C50202443202458202448207E20AE
:1002D00021203F206374726C2D785D0D0A00E8AD1B
:1002E000A6E68AA53A007C413A007C506E3A007C32
:1002F00046533A007C4C6E3A007C42663A007C479A
:100300003A007C4D3A007C533A007C463A007C54DB
:100310003A007C57506F733A007C4D506F733A002F
:10032000536C65657000446F6F723A004368656393
:100330006B00416C61726D00486F6D65004A6F67BC
:1003400000486F6C643A0052756E0049646C650039
:10035000E79DA1E79CA0E4B8AD00E6ADA3E59CA8AD
:10036000E681A2E5A48DE4B8BBE8BDB400E6ADA388
:10037000E59CA8E681A2E5A48DE9BB98E8AEA4E5DA
:1003800080BC00E7A88BE5BA8FE7BB93E69D9F0092
:10039000E6A380E69FA5E99990E588B600E6A380EC
:1003A000E69FA5E997A800E5B7B2E7A681E794A87C
:1003B00000E5B7B2E590AFE794A800E8ADA6E591F7
:1003C0008AEFBC9AE5B7B2E8A7A3E9948100272495
:1003D00048277C2724582720E8A7A3E9948100E92F
:1003E000878DE7BDAEE4BBA5E7BBA7E7BBAD005B70
:1003F000E6B688E681AF3A000D0A005BE68EA2E918
:1004000092883A006572726F723A000D0A00E589AF
:100410008DE58880E58FB73A000D0A005D005BE648
:100420008DA2E58880E78AB6E680813A20000D0A31
:1004300000E5BC80E5A78BE5AFB9E58880000D0A33
:1004400000E5908EE58880E58FB73A000D0A00E55B
:10045000BC80E5A78BE5AFB9E58880006F6B0D0A1E
:10046000000011241FBECFEFD1E2DEBFCDBF00E000
:100470000CBF12E0A0E0B2E0EAE2F9E900E00BBF55
:1004800002C007900D92AC38B107D9F725E1ACE86E
:10049000B2E001C01D92AE35B207E1F70E946D3E99
:1004A0000C94934C0C9400002F923F924F925F92C9
:1004B0006F927F928F929F92AF92BF92CF92DF9274
:1004C000EF92FF920F931F93CF93DF93CDB7DEB7D9
:1004D0002E970FB6F894DEBF0FBECDBF4B015C0167
:1004E0007A0120E030E0A9010E94D34510E087FFA7
:1004F00005C0B7FAB094B7F8B09411E0C501B401E3
:100500000E9456466B877C878D879E87112331F02A
:100510008DE2F7018083C70101967C016B857C85A4
:100520008D859E858E010F5F1F4F68013AE0232E57
:10053000312C412C512C3801EFEF6E1A7E0AA201AA
:1005400091010E946C49605DF8016083B901CA01A4
:100550008301611571058105910569F7D701F301E3
:10056000CE16DF06E1F583010C191D090F5F1F4F41
:100570000E0D1F1D6B857C858D859E850E94854691
:100580009B01AC01C501B4010E94DD4493012C190B
:100590003D09E20EF31E2EE2F7012083680124E0FC
:1005A000F22EFA94F1101EC0F80113822E960FB6A7
:1005B000F894DEBF0FBECDBFDF91CF911F910F9199
:1005C000FF90EF90DF90CF90BF90AF909F908F9073
:1005D0007F906F905F904F903F902F900895829101
:1005E0008D93BECF20E030E040E251E40E943548D8
:1005F0004B015C010E944F4620E3260FF601219338
:100600006F01072E000C880B990B0E9487469B01F7
:10061000AC01C501B4010E94DD44C3CF882361F061
:10062000813061F0823061F0833061F0843061F0BC
:10063000853061F082E0089584E0089588E00895AF
:1006400080E1089580E2089580E4089580E80895A7
:10065000EAE0F1E080818F738083EBE0F1E080815C
:10066000806C808357985F9A08952FB7F894909183
:100670002912892B809329122FBF08952FB7F89440
:1006800090912812892B809328122FBF08959FB72D
:10069000F89480932A129FBF08959FB7F8942091F1
:1006A0002B128095822380932B129FBF08952FB722
:1006B000F89490912B12892B80932B122FBF0895C1
:1006C0004F925F926F927F928F929F92AF92BF9262
:1006D000CF92DF92EF92FF920F931F93CF93DF930E
:1006E0008090DA13912C28EAA22E23E1B22E8C01FD
:1006F000D0E0C0E0F501C190D190E190F1905F01B0
:1007000020E030E0A901C701B6010E94D34588234B
:1007100081F1F8014080518062807380C4010C2E09
:1007200002C0959587950A94E2F720E030E0A90190
:1007300080FF11C0C301B2010E94D34587FD09C0EB
:10074000C701B6019058A30192010E94D34587FFCB
:1007500010C081E016C0C301B2010E94F54718160F
:10076000C4F3A3019201C701B6010E94F547181610
:1007700084F321960C5F1F4FC730D10509F0BACF23
:1007800080E0DF91CF911F910F91FF90EF90DF906C
:10079000CF90BF90AF909F908F907F906F905F9021
:1007A0004F9008958F929F92AF92BF92CF92DF9217
:1007B000EF92FF920F931F93CF93DF93EB0124E50A
:1007C000E22E23E1F22E8C016B018CE1C80ED11CCC
:1007D0006991799189919991F70181909190A19076
:1007E000B1907F010E948746A50194010E94DD45DA
:1007F000F80161937193819391938F01CC15DD057D
:1008000039F7DF91CF911F910F91FF90EF90DF901B
:10081000CF90BF90AF909F908F90089590910601D8
:10082000892F8F7059F093FB882780F921E0822768
:1008300090FF826091FF846092FF88600895CF935B
:10084000DF93C0912612D09127122097C9F0809192
:10085000F61181608093F61160910C1270910D1267
:1008600080910E1290910F129B01AC010E943548AD
:100870006EA37FA388A799A7109227121092261221
:10088000DF91CF9108958091D91382FF13C02F9AE1
:1008900080914D0680936E068091C4138250990B0F
:1008A000880F819580936D0680916F0082608093A0
:1008B0006F0008952F98ECCF9093AB008093AA001F
:1008C000892B31F48091A0008F7D8093A000089542
:1008D0008091A0008062F9CF882361F0813061F0BF
:1008E000823061F0833061F0843061F0853061F0F6
:1008F00082E0089580E8089580E4089580E20895F4
:1009000080E1089588E0089584E00895AF92BF9251
:10091000CF92DF92EF92FF920F931F93CF93DF93CB
:10092000E090C513F12CC090C613D12CD0E0C0E0EC
:1009300010E000E0BC2EAC2EC7010C2E02C0959535
:1009400087950A94E2F780FF04C08C2F0E940E0363
:10095000082BC60102C095958795AA94E2F780FFFF
:1009600004C08B2D0E946C04182B2196C730D10532
:1009700009F700934D0610934E06DF91CF911F911A
:100980000F91FF90EF90DF90CF90BF90AF900895C0
:10099000E091280591E09E0F20912906291761F02A
:1009A000F0E0E75DFA4F8083909328058091D100B5
:1009B00080628093D10004C020912B1224FFECCFE1
:1009C0000895E091220391E09E0F209123042917BE
:1009D00061F0F0E0ED5DFC4F808390932203809105
:1009E000C10080628093C10004C020912B1224FFBB
:1009F000ECCF0895CF93DF93CEE5D4E189918111B7
:100A000003C0DF91CF9108950E94E104F7CFAAE0DF
:100A1000B1E08C918C7F8C93EBE0F1E0808183607E
:100A200080838C9188618C938081877E80830895F8
:100A300010922F069091D91397FD03C093E09093E5
:100A40002F06882331F080912F0693E08927809329
:100A50002F0608958F929F92AF92BF92CF92DF920E
:100A6000EF92FF920F931F93CF93DF93CDB7DEB733
:100A70002D970FB6F894DEBF0FBECDBF6B017C0182
:100A8000042F20E030E0A9010E94D34587FF07C072
:100A90008DE20E94E104F7FAF094F7F8F094102F39
:100AA000123008F054C000FF0AC020E030E040E2FD
:100AB00051E4C701B6010E9435486B017C0120E07A
:100AC00030E040E05FE3C701B6010E94DE440E94CF
:100AD0004F4610E03AE0832E912CA12CB12CE12F4F
:100AE000F0E06115710581059105E9F581E090E07F
:100AF0008C0F9D1FE80FF91F80E3101708F445C005
:100B0000101309C0E1E0F0E0EC0FFD1FE10FF11D53
:100B100080E380831F5FEE24E394F12CEC0EFD1E36
:100B2000E10EF11C111134C02D960FB6F894DEBF02
:100B30000FBECDBFDF91CF911F910F91FF90EF902E
:100B4000DF90CF90BF90AF909F908F90089520E05E
:100B500030E048EC52E4C701B6010E9435486B0111
:100B60007C0112509DCFEE24E394F12CEC0EFD1E7F
:100B7000EE0EFF1EA50194010E946C49605DF70115
:100B80006083B901CA011F5FAACF1F5F8193B5CFF0
:100B9000101303C08EE20E94E104F70182917F01ED
:100BA0000E94E1041150BECF2091D91340E020FFF4
:100BB00007C02BE832E441E25DE30E94354841E0A2
:100BC0000C942A052091D91343E020FF07C02BE89D
:100BD00032E441E25DE30E94354844E00C942A058A
:100BE0000F931F93CF938C01C0E0F8016191719135
:100BF000819191918F010E94E205C63019F08CE23B
:100C00000E94E104CF5FC73081F7CF911F910F9110
:100C100008958F929F92AF92BF92CF92DF92EF9200
:100C2000FF920F931F93CF93DF9300D000D000D09B
:100C30001F92CDB7DEB76115710581059105A9F445
:100C400080E32A960FB6F894DEBF0FBECDBFDF91CA
:100C5000CF911F910F91FF90EF90DF90CF90BF90B9
:100C6000AF909F908F900C94E10400E09E012F5F65
:100C70003F4F79012AE0822E912CA12CB12C6701E3
:100C8000C00ED11CA50194010E946C49F60160833D
:100C9000B901CA010F5F611571058105910579F7E9
:100CA0000E0D1F2D111DE016F10699F42A960FB6B0
:100CB000F894DEBF0FBECDBFDF91CF911F910F9192
:100CC000FF90EF90DF90CF90BF90AF909F908F906C
:100CD0000895F80182918F01805D0E94E104E3CFC5
:100CE000CF92DF92EF92FF9297FF0CC06B017C01D5
:100CF0008DE20E94E10466277727CB016C197D09FC
:100D00008E099F09FF90EF90DF90CF900C94090619
:100D1000CF93DF93843658F06AE00E943E49C0E3E7
:100D2000C90F6AE00E943E49D0E3D90F04C0C0E079
:100D3000D0E08A30B0F7805D0E94E104DD2319F035
:100D40008D2F0E94E104CC2329F08C2FDF91CF91CD
:100D50000C94E104DF91CF910895CF93DF93EC01E0
:100D6000FE0184912196811103C0DF91CF910895F6
:100D70000E94E104F5CF8EE194E00E94AD0689B1B6
:100D800089B1881F8827881F0E9488068CE194E01B
:100D90000E94AD0689E194E00C94AD0688EF93E0E3
:100DA0000C94AD06CF93C82F84E094E00E94AD066A
:100DB0008C2F0E948806CF910C94CE06811104C01E
:100DC0008CE594E00C94AD060C94D206CF92DF92A1
:100DD000EF92FF92CF93DF93D82F6A017B01C22F4E
:100DE00084E20E94E1048D2F0E9488068DE30E9418
:100DF000E1044C2FC701B6010E942A05DF91CF9173
:100E0000FF90EF90DF90CF900C94CE06CF92DF92C0
:100E1000EF92FF920F931F93CF93DF9302EF13E1B3
:100E2000C2EDD0E0EE24E394EC0E6801F8E4CF0EBE
:100E3000D11C82E0F82EFC0ED130E1F0D23011F15D
:100E4000F801408151816281738123E08C2F0E94DF
:100E5000E606DF5FD33081F7CD5F0C5F1F4FCD3EDD
:100E600001F7DF91CF911F910F91FF90EF90DF90ED
:100E7000CF900895F80144A155A166A177A123E080
:100E80008E2DE5CFF601408151816281738123E08F
:100E90008F2DDDCFCF93DF93D82FC62F84E20E9412
:100EA000E1048D2F0E9488068DE30E94E1048C2FBF
:100EB0000E948806DF91CF910C94CE06CF92DF92EC
:100EC000EF92FF920F931F93CF93DF936091C41320
:100ED00070E080E00E944A076091C71370E081E0F3
:100EE0000E944A076091C51370E082E00E944A07A1
:100EF0006091C61370E083E00E944A076091D913A5
:100F000062FB662760F970E084E00E944A07609106
:100F1000D91366FB662760F970E085E00E944A07F6
:100F20008091D913082E000C990B692F661F662734
:100F3000661F70E086E00E944A076091C81370E067
:100F40008AE00E944A074091C9135091CA136091E8
:100F5000CB137091CC1323E08BE00E94E606409106
:100F6000CD135091CE136091CF137091D01323E025
:100F70008CE00E94E6066091D913617070E08DE00C
:100F80000E944A076091D91365FB662760F970E0FB
:100F900084E10E944A076091D91363FB662760F9D8
:100FA00070E085E10E944A076091D91362956170F3
:100FB00070E086E10E944A076091DA1370E087E1F1
:100FC0000E944A074091DB135091DC136091DD13BE
:100FD0007091DE1323E088E10E94E6064091DF1362
:100FE0005091E0136091E1137091E21323E089E1E5
:100FF0000E94E6066091E3137091E4138AE10E9477
:101000004A074091E5135091E6136091E713709100
:10101000E81323E08BE10E94E6064091D113509142
:10102000D2136091D3137091D41320E08EE10E940B
:10103000E6064091D5135091D6136091D713709165
:10104000D81320E08FE10E94E6066091D9136695DF
:10105000617070E080E20E944A0794E6F92E10E089
:10106000C4E5D3E100E0E02EEF0C123009F467C0D4
:10107000133009F471C0113009F45CC04881598102
:101080006A817B8123E08E2D0E94E6060F5F249605
:10109000073049F78AE0F80E1F5FECE8FE12E0CF58
:1010A0006091E91370E088EC0E944A074091EA13CE
:1010B0005091EB136091EC137091ED1323E089ECE8
:1010C0000E94E6064091EE135091EF136091F013E9
:1010D0007091F11323E08AEC0E94E60602EF13E11F
:1010E000C2EDD0E0EE24E394EC0E6801F8E4CF0EFC
:1010F000D11C82E0F82EFC0ED130B9F1D230E9F1EA
:10110000F801408151816281738123E08C2F0E941C
:10111000E606DF5FD33081F7CD5F0C5F1F4FCD3E1A
:1011200001F7DF91CF911F910F91FF90EF90DF902A
:10113000CF9008954C8D5D8D6E8D7F8DA3CF20E077
:1011400030E041E655E468AD79AD8AAD9BAD0E94D3
:10115000DD45AB01BC0196CFFE01EC5AFF4F40814B
:1011600051816281738170588DCFF80144A155A1DE
:1011700066A177A123E08E2DCACFF601408151816F
:101180006281738123E08F2DC2CF8DE50E94E1043F
:101190000C94CE06CF93DF93CDB7DEB76C970FB626
:1011A000F894DEBF0FBECDBF8BEF93E00E94AD067B
:1011B00060E376E0CE0101960E94D203CE01019653
:1011C0000E94F0058AE30E94E104809131120E949E
:1011D00088060E94C5086C960FB6F894DEBF0FBE55
:1011E000CDBFDF91CF910895ECEAF2E1A6EEB2E037
:1011F00041915191619171914D935D936D937D9367
:1012000082E1E83CF807A1F70895BF92CF92DF9200
:10121000EF92FF920F931F93CF93DF937C01FC011A
:10122000FE9600811181D281C381FC0181A180FFE2
:1012300033C06091341270E090E080E00E948746F5
:101240002AE037ED43E25CE30E9435489B01AC01A4
:10125000B8018D2F9C2F0E9435488B01D82FC92FA4
:1012600020E030E040E85FE3B8018D2F9C2F0E9422
:10127000F547181624F000E010E0D0E8CFE3B801FD
:101280008D2F9C2FDF91CF911F910F91FF90EF90A9
:10129000DF90CF90BF90089582FD17C06091331208
:1012A00070E090E080E00E9487462AE037ED43E25C
:1012B0005CE30E9435489B01AC01B8018D2F9C2F47
:1012C0000E9435488B01D82FC92FF701B2ACC3ACAF
:1012D000D4ACF5AC98014D2F5C2F6B2D7C2D8D2D52
:1012E0009F2D0E94D34587FFBBCF0B2D1C2DDD2DDD
:1012F000CF2DB6CF8091940690916D10981739F04C
:1013000026E4829FC00111248B56994F089590E0E6
:1013100080E008950E947A09892B19F082E00C94EC
:10132000570308952F923F924F925F926F927F9250
:101330008F929F92AF92BF92CF92DF92EF92FF92E5
:101340000F931F93CF93DF9300D01F92CDB7DEB7DB
:1013500000916D10002309F486C009833981315052
:10136000398310919306131709F466C0C32ED12C4C
:10137000E6E43E9FC00111249C012B56394F7901B0
:10138000F90172A483A494A4A5A466A577A580A955
:1013900091A99B01AC010E94DE44F70122A933A967
:1013A00044A955A90E943548B62EE72EF82E9B83F6
:1013B000262F372F482F592F672D782D892D9A2DBD
:1013C0000E94D34587FF03C0B72C7401AB8286E42B
:1013D0008C9DF0018D9DF00D1124EB56F94F8B2D56
:1013E0009E2DAF2DBB8186A397A3A0A7B1A7F9819E
:1013F0008F2FF11101C084E2FF24FA94F80E30908F
:1014000094061F1133C0131102C00E941F04E6E4AA
:101410001E9FC00111248B56994F9A8389833324D0
:101420003394310EF4E23F1201C0312C86E4282EB1
:10143000031185C0109393060F900F900F900F909B
:10144000DF91CF911F910F91FF90EF90DF90CF90A0
:10145000BF90AF909F908F907F906F905F904F90D4
:101460003F902F90089524E2298378CF298186E444
:10147000289F900111242B56394F3C832B8326E45F
:10148000E22E8F2C912CFE9CC0011124FC01EB5606
:10149000F94FFA83E983F11002C094E2F92EFA942D
:1014A000F31002C00E941F04E89CC001E99C900D4B
:1014B00011249C012B56394F6901F90142A453A410
:1014C00064A475A4A301920166A177A180A591A54A
:1014D0000E94D345882339F1F60166A577A580A936
:1014E00091A99B01AC010E94DE44F60122A933A917
:1014F00044A955A90E943548EB81FC8126A137A15A
:1015000040A551A50E94DE444B015C01AC019B014A
:10151000C301B2010E94F547F60118165CF486A2D9
:1015200097A2A0A6B1A629813A813C832B831F11E3
:10153000A8CF6DCF46A257A260A671A6F4CFC32C48
:10154000D12C329CC00111249C012B56394F7901BA
:10155000E981FA8146A057A060A471A4F90186A090
:1015600097A0A0A4B1A4A5019401C301B2010E9457
:10157000D34587FF26C0E981FA8166A577A580A9B2
:1015800091A99B01AC010E94DE44E981FA8122A964
:1015900033A944A955A90E943548A30192010E948C
:1015A000DE442B013C01AC019B01C501B4010E944A
:1015B000F547181634F4F70146A257A260A671A6A3
:1015C000132D2C9CF0012D9CF00D1124EB56F94F9E
:1015D00022A533A544A555A566A177A180A591A50F
:1015E0000E94D345811101C0132D3394F4E23F12C0
:1015F00001C0312CFA82E9821BCF6F927F928F92C9
:101600009F92AF92BF92CF92DF92EF92FF920F9391
:101610001F93CF93DF93EB018C015B018CE1A80E4C
:10162000B11C89E9682E96E7792E26E9822E3EE7DD
:10163000932EC990D990E990F99020E030E0A9016B
:10164000C701B6010E94D3458823B9F0A7019601CE
:10165000F80160817181828193810E94DD456B0177
:101660007C01E894F7F89301A401C701B6010E9438
:10167000F547181614F0360147010C5F1F4FCA15C5
:10168000DB05B9F6B301C401DF91CF911F910F9132
:10169000FF90EF90DF90CF90BF90AF909F908F9092
:1016A0007F906F9008954F925F926F927F92AF926A
:1016B000BF92CF92DF92EF92FF920F931F93CF933F
:1016C000DF936C01FB015A01A081A80FB92FB11D56
:1016D0008C91ED018D3249F5229611968C9101E0A5
:1016E000512C612C10E020E030E0A9017E0190ED4A
:1016F000792E780E89E0871528F16394A8E0A61565
:10170000E8F051101150A5E0B0E00E9496499B010D
:10171000AC01220F331F441F551F270D311D411DE2
:10172000511D2196D7018C91E1CF8B3219F0219672
:1017300000E0D6CF229611968C91FACF5110F1CFBE
:101740001F5FEFCFBEEF7B1205C0511003C05524C1
:101750005394E7CF662009F17F01CA01B9010E94C5
:1017600085462B013C0120E030E0A9010E94D345D1
:1017700081112EC0002309F448C077FA709477F8DD
:101780007094F5014082518262827382CC19DD0926
:10179000C150F701C08366246394862DDF91CF91F9
:1017A0001F910F91FF90EF90DF90CF90BF90AF907F
:1017B0007F906F905F904F9008952AE037ED43E25D
:1017C0005CE3C301B2010E9435482B013C011E5F5E
:1017D0001F3F9CF31F3F59F42DEC3CEC4CEC5DE3B8
:1017E000C301B2010E9435482B013C01C3CF112334
:1017F00009F220E030E040E251E4C301B2010E946E
:1018000035482B013C011150F2CFD5014D925D922C
:101810006D927C921397BACF93B18091D91386FFC2
:1018200013C09E7799F094FB882780F995FD82601C
:10183000292F207409F0846091FD806192FD8062FF
:1018400093FF05C0806408959095EBCF80E00895E4
:10185000EBE6F0E0808181788083E8E6F0E080814B
:101860008E7F8083089584B1817884B985B18E6735
:1018700085B98091D91383FF16C080916B008E6764
:1018800080936B008091680081608093680084B7CA
:10189000877F84BF8091600088618093600081E0D1
:1018A0008093600008950E94280CF1CF6CEA72E1E9
:1018B00084E592E10C94D203F894F999FECF92BD9D
:1018C00081BD81E08FBB20B5862F8227082E000CBA
:1018D000990B50E086239523892B49F084E16F3FD3
:1018E00011F060BD84E08FBBF99A789408952617B3
:1018F000E1F360BD84E2F7CF9F92AF92BF92CF92A7
:10190000DF92EF92FF920F931F93CF93DF935C01CF
:101910008A017B01E40EF51EEB01912C6C01C61AC5
:10192000D70ACE018C0D9D1D21E0911007C0292DF5
:10193000990C330B232F221F2227221F6991962EE9
:10194000920E0E945C0CCE15DF0559F7692DC5017A
:10195000800F911FDF91CF911F910F91FF90EF901A
:10196000DF90CF90BF90AF909F900C945C0C6AE09A
:1019700090E080E00E945C0C4AE051E064E573E195
:1019800081E090E00C947C0CF999FECF92BD81BD72
:1019900081E08FBB80B508959F92AF92BF92CF92A6
:1019A000DF92EF92FF920F931F93CF93DF935B0130
:1019B0008A017C01E40EF51EEC01912C6B01C81A22
:1019C000D90AC6018C0F9D1F0E94C40C21E0911002
:1019D00007C0292D990C330B232F221F2227221FEA
:1019E000982E920E8993CE15DF0559F7C501800F09
:1019F000911F0E94C40C21E030E0891511F030E005
:101A000020E0C901DF91CF911F910F91FF90EF90DE
:101A1000DF90CF90BF90AF909F900895E2E0F1E00B
:101A200080818F7D808380818F7B808308959091DA
:101A30002D12911106C0811105C00E940E0D109249
:101A40003712089586FF05C090910201906290932D
:101A5000020187FFF4CF809102018064809302012C
:101A6000EECFE6EEF2E08CE3DF011D928A95E9F716
:101A70001092940610926D1081E08093E50210920E
:101A8000930608954F925F926F927F92AF92BF92AA
:101A9000CF92DF92EF92FF920F931F93CF93DF933A
:101AA000EC015C012CE1A20EB11C8C01C12CD12CEB
:101AB0007601F80141905190619071908F0120E082
:101AC00030E0A901C301B2010E94D345882371F01F
:101AD000A3019201C301B2010E9435489B01AC01F0
:101AE000C701B6010E94DE446B017C010A151B058B
:101AF00001F7C701B6010E94D4486B017C01AC011B
:101B00009B0160E070E080E89FE30E94DD452B01CF
:101B10003C0169917991899199915E01F4E0AF1A44
:101B2000B108A30192010E943548F50160837183D9
:101B300082839383C017D10761F7C701B601DF9194
:101B4000CF911F910F91FF90EF90DF90CF90BF90BA
:101B5000AF907F906F905F904F9008954F925F92FB
:101B60006F927F928F929F92AF92BF92CF92DF92AD
:101B7000EF92FF926B017C018090D5139090D61369
:101B8000A090D713B090D8134090D1135090D21397
:101B90006090D3137090D413A3019201C501B401D6
:101BA0000E94F54787FF1BC06091351270E090E0FE
:101BB00080E00E9487462AE037ED43E25CE30E9422
:101BC0003548A70196010E9435486B017C01AC01A4
:101BD0009B01C301B2010E94D3451816BCF040928C
:101BE000391250923A1260923B1270923C1280E08D
:101BF00094E0FF90EF90DF90CF90BF90AF909F90D8
:101C00008F907F906F905F904F900895A7019601FD
:101C1000C501B4010E94F54787FD1FC020E030E0F8
:101C2000A901C701B6010E94D34581110BC01092D2
:101C3000391210923A1210923B1210923C1290E01C
:101C400080E0D7CF8092391290923A12A0923B1244
:101C5000B0923C1281E090E0CCCFC0923912D09289
:101C60003A12E0923B12F0923C12A5019401C70196
:101C7000B6010E94DD4420912B0630912C06409144
:101C80002D0650912E060E9435480E94C24620E043
:101C900030E040E85FE30E94DE440E945646CB01FC
:101CA000A8CF2F923F924F925F926F927F928F9226
:101CB0009F92AF92BF92CF92DF92EF92FF920F93DB
:101CC0001F93CF93DF93CDB7DEB7C054D1090FB6C2
:101CD000F894DEBF0FBECDBF8091301280FD75C27B
:101CE00090916E1080916F10981709F46EC28091D8
:101CF000261290912712892B09F07EC01091301284
:101D000012FF7DC280916D1026E4829FC0011124D4
:101D10008B56994F9093271280932612409126124A
:101D2000509127125E834D83452B09F44EC20091DA
:101D3000F61100FF67C21092F6111092081210926D
:101D4000091210920A1210920B12AD81BE819E965A
:101D50002D913D914D915C91D19729833A834B838D
:101D60005C8360E070E080E09FE30E94DD4569876E
:101D70007A878B879C87ED81FE8142A853A864A84F
:101D800075A886A097A0A0A4B1A411FF29C3F2E072
:101D9000F0930712A50194010E9435489B01AC0104
:101DA000C301B2010E94DD446B017C0120E030E000
:101DB000A9010E94D34587FF02C329813A814B8143
:101DC0005C81CA01B9010E94DE44A30192010E9414
:101DD00035489B01AC01C501B4010E94DD440E945D
:101DE000D448609314127093151280931612909336
:101DF0001712186010933012E091C010F8E0EF9FB6
:101E0000D0011124BA87A987FD01E059FF4E8091C6
:101E1000F51184834090261250902712D201D29659
:101E2000BC91BEA3F201F3A9FFA3D201D496BC9149
:101E3000B8A7F201F5A9F9A7209103123091041275
:101E400040910512509106126EA17FA18B2F9F2FFA
:101E50000E94DD446AAB7BAB8CAB9DAB20E030E0F5
:101E6000A9010E94D34587FF04C01AAA1BAA1CAA75
:101E70001DAA209118122E8B309119123F8B409180
:101E80001A12488F50911B12598F809110128E8F09
:101E9000909111129F8FA0911212A8A3B0911312CA
:101EA000B9A3E0911C12EAA7F0911D12FBA72091A3
:101EB0001E122CA730911F123DA740910C124FAF5C
:101EC00050910D1221965FAF219760900E12709085
:101ED0000F12809107128983909108129EA7A091FA
:101EE0000912AFA7B0910A12B8ABE0910B12E9AB9F
:101EF000F0911412FBAF209115122CAF30911612F5
:101F00003DAF409117124EAF2AA53BA54CA55DA54C
:101F10006E897F89888D998D0E94D3458111EFC389
:101F200052E05EAB9EA19D83AFA1AD87B8A5B98BF2
:101F3000E9A5ED8B8EE3C82E83ECD82E8EE2E82E39
:101F400089E3F82E1A8E1B8E1C8E1D8EA70196011A
:101F50002AA33BA34CA35DA33981313009F449C4C2
:101F6000D201313008F4D3C3333009F075C49E96E2
:101F70002D913D914D915C91D197C701B6010E9481
:101F800035484B015C0120E030E040E05FE30E9417
:101F900035489B01AC016FAD21967FAD2197C30100
:101FA0000E94DD44A70196010E9435486FAB78AFCF
:101FB00089AF9AAF9B01AC016D817D8589899D892F
:101FC0000E94DD441B018C012E893F89488D598D6B
:101FD0000E94D34587FD0CC020E030E0A9016FA925
:101FE00078AD89AD9AAD0E94D34518160CF472C431
:101FF0002E893F89488D598D6EA17FA188A599A50D
:102000000E94DD449B01AC010E94DE446B017C0117
:102010002E8D3F8D48A159A16FAD21967FAD21979F
:10202000C3010E94DE449B01AC01C701B6010E94BE
:10203000DD456B017C01BE8DBFAFEF8D2196EFAF0B
:10204000219768A079A02E883F88088D198DF1E02E
:10205000F983A70196016A8D7B8D8C8D9D8D0E94E1
:10206000DE446A8F7B8F8C8F9D8F2AA13BA14CA170
:102070005DA10E94D34587FF67C42A8D3B8D4C8D9F
:102080005D8D6AA17BA18CA19DA10E94DD446B01A5
:102090007C019101A8016EA57FA588A999A90E943C
:1020A000D34587FD2FC38FAD21969FAD2197D301D7
:1020B00080930C1290930D12A0930E12B0930F12F6
:1020C000F981F0930712E091C110F091C21081A143
:1020D000811104C09091301293FF33C0D2019196C8
:1020E0009C91907309F45EC4F201EE5BFF4FC080D7
:1020F000D180E280F3808823B9F0209120123091C2
:10210000211240912212509123126FAD21967FAD82
:102110002197C3010E9435489B01AC01C701B6015C
:102120000E9435486B017C01C701B6010E94AE0DCB
:10213000909325128093241280913012877F809390
:1021400030128091241290912512E985FA85E05988
:10215000FF4EFE83ED83978386832091FF1130919C
:1021600000124091011250910212B101C8010E9467
:1021700035482B013C010E94BC456B017C016091FC
:10218000FB117091FC118091FD119091FE110E9444
:10219000BC454B015C01A70196010E94DD440E94F1
:1021A000564669837A838B839C83E981FA81AD816A
:1021B000BE81ED93FC93EF2B09F001C480913012A6
:1021C00081FFFDC3816080933012C05CDF4F0FB68A
:1021D000F894DEBF0FBECDBFDF91CF911F910F915D
:1021E000FF90EF90DF90CF90BF90AF909F908F9037
:1021F0007F906F905F904F903F902F9008950E9436
:102200007A0988CD8091F5118F5F893009F480E0DB
:102210008093F511282F30E052E2859FC0011124F0
:10222000DC01AD53BF4E7D01B093C210A093C1102D
:10223000ED81FE8180A190968C9390E080E04191A9
:10224000519161917191D701A80FB91F689412F84B
:10225000440F551F661F771F1694D1F74D935D935A
:102260006D937C93139704968C31910541F7AD8162
:10227000BE815C966D917D918D919C915F97B2E24C
:10228000B29FA001B39F500D1124FA01ED53FF4EF0
:102290004B015C0123E0880C991CAA1CBB1C2A95ED
:1022A000D1F7848E958EA68EB78E0E948546609358
:1022B000FB117093FC118093FD119093FE11ED8141
:1022C000FE8122A933A944A955A90E94DD459B019D
:1022D000AC012093FF1130930012409301125093F0
:1022E000021260E070E080EA9FE30E94DD456093A7
:1022F00003127093041280930512909306121092A9
:10230000F7111092F8111092F9111092FA1111FDB3
:1023100002C003FF43C060911412709115128091A6
:1023200016129091171260930C1270930D128093F5
:102330000E1290930F129B01AC010E943548AD81A3
:10234000BE8196966D937D938D939C939997077F0D
:102350000093F611D70191961C928091D91381FFB9
:10236000ECCCED81FE8181A185FFE7CCFE9620813A
:1023700031814281538160E070E080E89FE30E94F8
:10238000DD45609320127093211280932212909366
:102390002312E1E0D7019196EC93CFCCED81FE8141
:1023A00066A177A180A591A50E94D44860930C12E4
:1023B00070930D1280930E1290930F12CBCFC09298
:1023C0000812D0920912E0920A12F0920B121092A7
:1023D000141210921512109216121092171209CDA3
:1023E00010920712409218125092191260921A120B
:1023F00070921B1212FF6AC01092141210921512E2
:102400001092161210921712C12CD12C76018D81C8
:102410009E810E940509698B7A8B8B8B9C8B9B011B
:10242000AC010E9435486D837E838F839887A50118
:1024300094010E94D34587FF93C02D813E814F8137
:102440005885C501B4010E94DD4429853A854B8534
:102450005C850E9435489B01AC01C301B2010E941A
:10246000DD44609318127093191280931A1290939E
:102470001B1220E030E0A9010E94D34518160CF48D
:1024800049C032E03093071229813A814B815C8147
:10249000CA01B9010E94DE44A30192010E9435489D
:1024A0009B01AC01C501B4010E94DD440E94D448E7
:1024B0006093141270931512809316129093171252
:1024C0008091F61188608093F61193CCE091940688
:1024D000EF5FE43209F4E0E080916D10C12CD12C63
:1024E00076018E1751F026E42E9FF0011124EB5651
:1024F000F94FC6A0D7A0E0A4F1A4C701B6010E947D
:10250000D44860931412709315128093161290930E
:1025100017127DCFA70196016D817E818F819885ED
:102520000E94DD4429853A854B855C850E943548AB
:1025300060931C1270931D1280931E1290931F12B1
:1025400089899A89AB89BC89809310129093111262
:10255000A0931212B093131293E09093071249CCF8
:10256000A7019601C501B4010E94DD4429853A8581
:102570004B855C850E943548A30192010E94DE4490
:1025800020E030E040E05FE30E9435486D877E87C1
:102590008F87988B20E030E0A9010E94F54718163C
:1025A0000CF094C0A30192016D857E858F8598897A
:1025B0000E94D34587FF88C0A70196016D817E8167
:1025C0008F8198850E94DD4429853A854B855C85FD
:1025D0000E9435489B01AC0120931C1230931D12C0
:1025E00040931E1250931F126D857E858F859889AA
:1025F0000E94F5471816BCF529893A894B895C89F0
:102600002093101230931112409312125093131210
:10261000A50194016D817E818F8198850E94D345AB
:10262000811104C031E030930712E3CBA50194017E
:102630006D817E818F8198850E94DD4429853A8550
:102640004B855C850E9435489B01AC01C301B201FA
:102650000E94DD44609318127093191280931A122D
:1026600090931B12C6CB8D859E85AF85B8898093CC
:10267000181290931912A0931A12B0931B12809300
:102680001C1290931D12A0931E12B0931F12298149
:102690003A814B815C81CA01B9010E94DE442D85DB
:1026A0003E854F8558890E943548A70196010E94B2
:1026B000DE440E94D44860931012709311128093EC
:1026C00012129093131295CB92E047CF809114127F
:1026D00090911512A0911612B09117121092181223
:1026E0001092191210921A1210921B12809310124B
:1026F00090931112A0931212B09313127ACB81E02F
:102700008EAB10CC2D823D86098B1D8B25CC9E96E1
:102710002D913D914D915C91D197C701B6010E94D9
:1027200035484B015C0120E030E040E05FE30E946F
:1027300035482FAD21963FAD2197A3010E94DE447D
:10274000A70196010E9435489B01AC016D817D85F2
:1027500089899D890E94DD441B018C019B01AC018C
:102760006E897F89888D998D0E94F547181694F59A
:102770002E893F89488D598D6EA17FA188A599A585
:102780000E94DD449B01AC010E94DE446B017C0190
:102790002E8D3F8D48A159A16FAD21967FAD219718
:1027A000C3010E94DE449B01AC01C701B6010E9437
:1027B000DD456B017C01BEA9B983EE8DEFAFFF8DC6
:1027C0002196FFAF219768A079A02E883F88088DB9
:1027D000198D3FCCA50194016FAD21967FAD219756
:1027E000C3010E94DE446FAF21967FAF21973C0169
:1027F00030CC2E8D3F8D48A159A1C701B6010E9452
:1028000035489B01AC016D817D8589899D890E9438
:10281000DD441B018C012AA53BA54CA55DA50E94AA
:10282000D34587FF16CC2AA53BA54CA55DA56D8198
:102830007D8589899D890E94DD442E8D3F8D48A12B
:1028400059A10E94DD456B017C012AA43BA40CA583
:102850001DA522E02983FDCB9E962D913D914D91A2
:102860005C91D197C701B6010E9435484B015C01CC
:10287000AC019B016FAD21967FAD2197C3010E94F2
:10288000F54718168CF520E030E040E05FE3C50125
:10289000B4010E9435489B01AC016FAD21967FAD1C
:1028A0002197C3010E94DD44A70196010E9435488B
:1028B0009B01AC016D817D8589899D890E94DD44E4
:1028C0001B018C012EA53FA548A959A90E94F547D7
:1028D000181654F4A50194016FAD21967FAD219790
:1028E000C3010E94DD447FCF2EA53FA548A959A969
:1028F0006D817D8589899D890E94DD449B01AC01A4
:102900000E94DE446B017C012BAD3CAD4DAD5EAD54
:102910006FAD21967FAD2197C3010E94DE449B01DC
:10292000AC01C701B6010E94DD456B017C01BBAD66
:10293000BFAFECAD2196EFAF21976DAC7EAC2EA46E
:102940003FA408A919A985CB2AA93BA94CA95DA92F
:10295000B101C8010E94F54718169CF42EE333EC30
:102960004EE259E36AA17BA18CA19DA10E94DE44A5
:102970006AA37BA38CA39DA32A8D3B8D4C8D5D8D7B
:1029800084CB8FAD21969FAD2197D30180930C12FC
:1029900090930D12A0930E12B0930F1229812093E1
:1029A000071291CB1092391210923A1210923B12E8
:1029B00010923C121092251210922412BDCB20913D
:1029C000F7113091F8114091F9115091FA116A8D77
:1029D0007B8D8C8D9D8D0E94DE446D837E838F83E5
:1029E0009887A3019201C501B4010E94DD449B01B7
:1029F000AC016D817E818F8198850E94DD454B0100
:102A00005C0120EC31EE44E65EE40E9435480E9411
:102A1000BC450E945646E985FA85E059FF4E603D67
:102A200037E073078105910508F054C01582E985E8
:102A3000FA85E059FF4E7383628380916F10809313
:102A4000C0108F5F8A3009F47BC080936F10E091D3
:102A50002612F0912712C101D80182AB93ABA4AB2F
:102A6000B5ABC092FB11D092FC11E092FD11F09237
:102A7000FE11A3019201C701B6010E94DD44A50128
:102A800094010E9435486093F7117093F811809378
:102A9000F9119093FA112091081230910912409186
:102AA0000A1250910B12B101C8010E94D345811145
:102AB00017C990913012998320E030E0A901B1014B
:102AC000C8010E94F5471816F4F5A981A160A093EA
:102AD00030127BCB603A4FE074078105910520F5F9
:102AE00051E05583E985FA85E059FF4E2581022E94
:102AF00004C096958795779567950A94D2F7498192
:102B00005A8102C0440F551F2A95E2F75183408332
:102B10006115710551E08507910508F488CF8FEFA5
:102B20009FEF9383828389CF6034AFE17A07810579
:102B3000910518F4B2E0B583D5CF23E02583D2CF39
:102B400010926F1084CFB981B2FF04C0B160B0930E
:102B500030123BCB109227121092261290919406BD
:102B600080916D10891709F4BBC881E0890F843208
:102B700009F480E020919306921302C0809393069B
:102B800080939406ADC82F923F924F925F926F92BE
:102B90007F928F929F92AF92BF92CF92DF92EF92ED
:102BA000FF920F931F93CF93DF93CDB7DEB7C65835
:102BB000D1090FB6F894DEBF0FBECDBFE9967FAF47
:102BC0006EAFE997B0906D102B2D30E0E3963FAFDC
:102BD0002EAFE39726E4B29EA0011124BA016B56F2
:102BE000794FEB967FAF6EAFEB97DB011D922A9585
:102BF000E9F7E996EEADFFADE9972485DB01919603
:102C00002C93FB01EE5BFF4FE996AEADBFADE997AC
:102C100014964D915D916D917C91179740835183EE
:102C20006283738318964D915D916D917C911B9792
:102C3000EB96EEADFFADEB9742A353A364A375A350
:102C400021FFE9C12CE1ECEAF2E1DE01D996019025
:102C50000D922A95E1F7E4968FAFE497E5969FAF42
:102C6000E59724E533E1CD57DF4F39832883C358F7
:102C7000D040BE01635E7F4FCF57DF4F79836883BB
:102C8000C158D040CE01C996C158DF4F998388837F
:102C9000CF57D040EB96AEADBFADEB97EF96BFAF41
:102CA000AEAFEF974E01B5E58B0E911CED969FAE42
:102CB0008EAEED9710E086E4E396EEADFFADE397C0
:102CC0008E9F10018F9F300C112491012B56394F8C
:102CD0001901B901645E7F4FCB57DF4F7983688359
:102CE000C558D04070E2270E311CE596AEADBFADA1
:102CF000E5976D917D918D919D91E596BFAFAEAFBA
:102D0000E597CD57DF4FE881F981C358D040419016
:102D1000519061907190CD57DF4FF983E883C3588C
:102D2000D040A30192010E9435480E940248CF572B
:102D3000DF4FA881B981C158D0406D937D938D93A9
:102D40009D93CF57DF4FB983A883C158D040C15856
:102D5000DF4FE881F981CF57D040C190D190E19009
:102D6000F190C158DF4FF983E883CF57D0406C19F9
:102D70007D098E099F099B01AC0197FF07C022279F
:102D80003327A901261B370B480B590BEF96AEAD25
:102D9000BFADEF972D933D934D935D93EF96BFAFEE
:102DA000AEAFEF97CB57DF4FE881F981C558D040E0
:102DB000C080D180E280F380C216D306E406F50617
:102DC00010F469017A01CB57DF4FA881B981C5584A
:102DD000D040CD92DD92ED92FC9213970E948746EF
:102DE000A30192010E94DD45ED96EEADFFADED979A
:102DF0006193719381939193ED96FFAFEEAFED9751
:102E000020E030E0A9010E94D34587FF07C0812F51
:102E10000E946C04D1019C91892B8C931F5F173009
:102E200009F063CF80E0CD28CE28CF2809F4D9C09F
:102E3000CE018B5A9F4F0E94420D6B017C0186E4AC
:102E4000E396EEADFFADE3978E9F80018F9F100D4F
:102E500011240B56194FD801D296CD92DD92ED92E6
:102E6000FC92D597BE016B5A7F4F8CE893E10E948C
:102E7000FD0AF80166A777A780AB91ABBE016B5A3C
:102E80007F4F80E793E10E94FD0AD801DA966D93A7
:102E90007D938D939C93DD979196AC90025C1F4F30
:102EA000A0FEBDC0F801608371838283938380910B
:102EB0009406B81611F0A1FECDC086E4E3962EADBF
:102EC0003FADE397829FF001839FF00D1124EB56F5
:102ED000F94F16A217A210A611A616AA17AA10AE8D
:102EE00011AE86E4E396EEADFFADE3978E9F8001D1
:102EF0008F9F100D11240B56194FD80191968C916C
:102F000081FD6EC0EB968EAD9FADEB970E940509DB
:102F10006B017C0180901E0390901F03A090200302
:102F2000B0902103AC019B01C501B4010E94D345BF
:102F300087FF6DC1A5019401C501B4010E94354808
:102F4000F80162A773A784A795A786E4E396EEAD80
:102F5000FFADE3978E9F80018F9F100D11240B56BC
:102F6000194FD801D6968D909D90AD90BC90D99771
:102F7000A50194019A966D917D918D919C919D975B
:102F80000E94F54718162CF4F80182A693A6A4A671
:102F9000B5A6C0921E03D0921F03E0922003F092C8
:102FA00021038CE1FE01EB5AFF4FA2E0B3E0019058
:102FB0000D928A95E1F78CE1FE017D96A6EEB2E0D6
:102FC00001900D928A95E1F78091E50280936D1052
:102FD0008F5F843209F480E08093E5020E949209B9
:102FE00081E0CA57DF4F0FB6F894DEBF0FBECDBFEA
:102FF000DF91CF911F910F91FF90EF90DF90CF90D5
:10300000BF90AF909F908F907F906F905F904F9008
:103010003F902F9008952CE1E6EEF2E016CEE9966F
:10302000AEADBFADE9972D913D914D915C91A3FC63
:1030300006C0F801208331834283538338CFC70110
:10304000B6010E943548D8016D937D938D939C9372
:1030500013972DCF62E073E0E9967FAF6EAFE997EB
:103060008E010F5F1F4F14017CE1270E311CC12C14
:10307000D12C76015801E996EEADFFADE99781912B
:103080009191A191B191E996FFAFEEAFE997E796E3
:103090008CAF9DAFAEAFBFAFE797D4014D905D90C1
:1030A0006D907D904D01A3019201E7966CAD7DADD1
:1030B0008EAD9FADE7970E9435489B01AC01C701DB
:1030C000B6010E94DD446B017C01E7962CAD3DAD5D
:1030D0004EAD5FADE797C301B2010E94DD44F80138
:1030E00061937193819391938F012814390419F698
:1030F0002FEE3FEF4FE75FE3C701B6010E94F547B0
:1031000018166CF486E4E3962EAD3FADE397829FEC
:10311000F001839FF00D1124EB56F94FDECE2FEE18
:103120003FEF4FE75FEBC701B6010E94D34587FF32
:1031300015C086E4E3966EAD7FADE397869FF00100
:10314000879FF00D1124EB56F94F89E996E7A6E920
:10315000BEE786AB97ABA0AFB1AFC3CEC5010E94AF
:10316000420DB5018CE893E10E94FD0A4B015C0120
:10317000A701960160E070E080E89FE30E94DD44D3
:1031800020E030E040E05FE30E9435480E94D448F0
:103190006B017C012091C9133091CA134091CB136C
:1031A0005091CC13C501B4010E943548A701960186
:1031B0000E9435484B015C01A701960160E070E078
:1031C00080E89FE30E94DD449B01AC01C501B4018E
:1031D0000E94DD456B017C0120E030E0A9010E94E6
:1031E000D34587FF03C0C12CD12C760186E4E3963A
:1031F000AEADBFADE3978A9FF0018B9FF00D112418
:10320000EB56F94FC6AAD7AAE0AEF1AE6ACEA70137
:103210009601C701B6010E943548D8019A966D9370
:103220007D938D939C939D9790CE019708F408957C
:10323000EFE9FFE03197F1F700C00000F6CF809191
:103240006F008D7F80936F0080918100887F816007
:103250008093810010924F068091C71390912C1299
:103260008F3FA1F420912A12211110C0903881F4CF
:1032700090E00E94151981E09091D91392FF02C04D
:1032800091E08927882331F02F9A0895943081F7AF
:1032900080E0F2CF2F980895CF93DF930E941F19FB
:1032A000E5EFF1E181E3DF011D928A95E9F7C0E5E1
:1032B000D6E083E4FE0111928A95E9F71092271275
:1032C0001092261210926E101092C01081E080931E
:1032D0006F1010924F060E94860480914E068F8FC9
:1032E00082B1817090914D06892B82B988B181702D
:1032F00090914E06892B88B9DF91CF910895EF9276
:10330000FF920F931F93CF93DF93EC01FC0127E013
:103310008FEF9FEF2150D9F48C017E0186E0E80EFB
:10332000F11C89910E94C804EC16FD06D1F7802F8C
:103330000E94C804812F0E94C80482E390E0DF91BC
:10334000CF911F910F91FF90EF900C94151931912F
:10335000832748E050E0BC016170772796958795F8
:10336000672B21F031E0832730EA93274150510940
:1033700091F7D0CFCF93DF9300D000D0CDB7DEB799
:1033800086E0E0E0F2E0DE01119601900D928A9570
:10339000E1F7CE0101960E947F19E0EAF0E080811A
:1033A0008F7D8083E2E0F1E08081877F80832696B5
:1033B0000FB6F894DEBF0FBECDBFDF91CF91089559
:1033C000CF92DF92EF92FF921F93CF93DF9300D0C3
:1033D00000D0CDB7DEB7182F6A017B0180912D1286
:1033E00081110EC011111AC01092391210923A12A6
:1033F00010923B1210923C120E94BA19109237128E
:1034000026960FB6F894DEBF0FBECDBFDF91CF91E9
:103410001F91FF90EF90DF90CF90089586E01031DC
:1034200009F040C0E6E0F2E0DE01119601900D9255
:103430008A95E1F7CE0101960E947F197398749ADC
:103440008091D91381FF05C0103219F4C12CD12C01
:10345000760120E030E040E752E4C701B6010E9467
:10346000DD4520E030E048EC52E40E9435480E94FF
:10347000564681E0898396E09A8393E19B838C830F
:103480007D836E83CE0101960E947F19C701B6012C
:103490000E94AE0D0E945C048091020188608093BE
:1034A0000201ACCFECE0F2E0DE01119601900D924A
:1034B0008A95E1F7CE0101960E947F197498739A5C
:1034C000BFCFE1E0F1E080818061808383E0809381
:1034D000A0008AE18093A10080E094E09093A9008D
:1034E0008093A8008081886080838DB188618DB9C8
:1034F0002091D5133091D6134091D7135091D81302
:103500006091D1137091D2138091D3139091D41301
:103510000E94DD449B01AC0160E070EC8FE794E415
:103520000E94DD4560932B0670932C0680932D0638
:1035300090932E060C94BA1980912B1284FD1DC015
:1035400080E10E9457030E94BA190E940E0D9091CB
:103550002C12892F8C7221F480913012867069F0C0
:10356000943049F480912A12811103C086E00E94B0
:1035700047030C941F1983E0FACF08952F923F92CE
:103580004F925F926F927F928F929F92AF92BF9273
:10359000CF92DF92EF92FF920F931F93CF93DF931F
:1035A000CDB7DEB7C057D1090FB6F894DEBF0FBE56
:1035B000CDBF10912A12112349F181E080932C1282
:1035C0008EED92E00E94AD06812F0E9488060E9437
:1035D000CE0684EF91E00E9415191150123088F444
:1035E0008FEE93E00E94AD068FED93E00E94AD0652
:1035F0000E94C50880E10E944D0380912B1284FF38
:10360000FCCF8FB7F89410922A128FBF10912B1213
:10361000112309F420C314FF1DC081E080932D12F3
:10362000C059DF4F0FB6F894DEBF0FBECDBFDF919C
:10363000CF911F910F91FF90EF90DF90CF90BF90AF
:10364000AF909F908F907F906F905F904F903F9042
:103650002F900895212F2170D22E10FFDDC18CE113
:10366000ECEAF2E1DE01AB5ABF4F01900D928A9570
:10367000E1F7BE016B5A7F4FCE01C9960E94D2037B
:10368000BE016B5A7F4FCE014D960E94D2038CE350
:103690000E94E10480912C12883009F481C008F066
:1036A0005CC0813009F485C008F475C0823009F42B
:1036B00083C0843009F47AC08091C813382F3170E8
:1036C000C32E80FF8EC080913812882309F489C0F0
:1036D00089E193E00E94AD06CE01C9960E94F005F3
:1036E00082E193E00E94AD06CE014D960E94F00566
:1036F0008EE093E00E94AD068091E9130E94880657
:103700008AE093E00E94AD0660914B1270914C12DA
:1037100080914D1290914E120E94D40586E093E064
:103720000E94AD0660914712709148128091491233
:1037300090914A1240E00E942A0582E093E00E94A4
:10374000AD0680914612803109F499C0803209F4A7
:10375000BAC1811197C085E393C0803221F198F4FA
:10376000803109F0A9CF80912E1287FD1CC081E421
:1037700093E00E94AD0680912E1280FF2EC080E360
:103780000E94E10499CF8034D1F0803809F094CFC1
:1037900080E293E002C08BE493E00E94AD068CCF00
:1037A00087E493E0FACF8DE393E0F7CF88E393E0EB
:1037B000F4CF82E393E0F1CF8CE293E0EECF86E2A8
:1037C00093E00E94AD0680912E1283FF02C083E336
:1037D000D7CF82FF04C085FFD2CF81E3D1CF82E370
:1037E000CFCF4090A8125090A9126090AA1270906A
:1037F000AB1250E7A52E52E1B52ECE0101964C0139
:10380000FE017D967F0100E0F5016191719181914A
:1038100091915F01208D318D428D538D0E94DE4448
:10382000F40161937193819391934F01023021F5DB
:10383000A30192010E94DE4469877A878B879C8767
:10384000C11015C0F4013497208131814281538128
:10385000F70160817181828193810E94DD44F701CB
:103860006083718382839383063009F431CF0F5FC5
:10387000F4E0EF0EF11CC8CFCC2021F3F5CF83E3A9
:103880000E94E1048EEF92E00E94AD068091431207
:103890008A5C0E9488068091C81381FF1EC089EF50
:1038A00092E00E94AD0690916D1080919406981759
:1038B00008F40BC18D5D891B0E9488068CE20E9472
:1038C000E1048091240590912505981708F4FFC024
:1038D000981B892F80950E9488060E947A0900977C
:1038E00091F0FC0182A093A0A4A0B5A08114910442
:1038F000A104B10441F084EF92E00E94AD06C5013D
:10390000B4010E9470068FEE92E00E94AD06809195
:103910002C128C7709F4DEC060910C1270910D129C
:1039200080910E1290910F120E94D4058CE20E9499
:10393000E1046091391270913A1280913B1290919A
:103940003C1240E00E942A050E940C0C082F0E94A5
:103950000E04E82E809103018370F0902F06F82664
:10396000802F8E298F2909F43FC08AEE92E00E94B1
:10397000AD06FF2019F080E50E94E104002319F153
:1039800000FF03C088E50E94E10401FF03C089E550
:103990000E94E10402FF03C08AE50E94E10403FFE4
:1039A00003C081E40E94E10404FF03C082E40E949A
:1039B000E10405FF03C083E40E94E10406FF03C0A5
:1039C00084E40E94E104EE2079F0E1FE03C082E588
:1039D0000E94E104E2FE03C088E40E94E104E3FEE9
:1039E00003C083E50E94E10480913812882309F422
:1039F00075C081508093381200913712002309F46A
:103A00007EC00150009337128EE30E94E1040E94B1
:103A1000CE0681E00E944D03812F887E09F4CBC041
:103A200080912C12982F937009F0B4C08872A9F07D
:103A300080912E12807C89F40E941F0482E0809382
:103A4000301280912C12803241F480E217FD0CC0BC
:103A500080912E12806880932E1280912C128111F9
:103A600003C091E090932E1216FF07C085FD05C09C
:103A700090912E12906490932E1213FF05C0807EB9
:103A800019F480E180932C1215FF84C08FEE93E02F
:103A90000E94AD068DE993E00E94AD060E94C50824
:103AA00080912E1287FD71C090912C12903409F0F4
:103AB00069C083FF04C0837E826080932E1280E4FD
:103AC00080932C1262C084E3DBCE8150F4CE81500F
:103AD000891B01CF60E070E0CB0126CF80912C12D2
:103AE0008C7759F08DE180933812809137128111D3
:103AF00083CF81E0809337127FCF89E0F4CF80912C
:103B00002C128C7799F183E1809337128091020116
:103B100083FF07C08091A00085FF03C0739B28C06E
:103B200002E09091020181E0292F207295FF80E050
:103B30009091020196FF1EC0D82E6894D1F886EEAF
:103B400092E00E94AD06002331F083E5013009F0D8
:103B500083E40E94E104D0FE03C086E40E94E104F5
:103B6000D1FE52CF8DE40E94E1044ECF89E0CCCF4C
:103B700001E0D7CF011104C0222309F445CFDFCFE4
:103B8000D82EDDCF903809F09ACF80912E12806226
:103B900080932E1217FF0CC080912C12813029F4D3
:103BA00080912E12856080932E1280E880932C12D3
:103BB00088EE0E944D0311FF28C0812F887611F5F1
:103BC00080912C12803441F480912E1285FD04C026
:103BD00084FFE7C010922C1280912C12882309F4E4
:103BE000E6C084FF0FC090912E1290FF0BC0803171
:103BF00009F0DDC080913612882309F4D8C08860AE
:103C00008093361282E00E944D0312FF24C09091EF
:103C10002E1280912C12807D09F4E2C080912F1227
:103C20008111DEC097FDDEC00E941F0480919406C2
:103C3000809393060E9492098091301281FF05C003
:103C400090912E12916090932E12897F8093301262
:103C500084E00E944D0390912812992309F44CC0EE
:103C60008FB7F894109228128FBF40913312842F8F
:103C700090FD84E691FD865F92FD8A5093FD8F5FF3
:103C800094FD8150893C08F088EC8A3008F48AE081
:103C900030913412232F95FD24E696FD22E397FD03
:103CA00029E1481302C0231739F18093331220937E
:103CB0003412109237127090940660906D10172D88
:103CC00089E9282E96E7392E26E9422E3EE7532E23
:103CD00046E4842E1611A1C0C101D20180931E03B7
:103CE00090931F03A0932003B09321030E941F040D
:103CF000709293060E94920990912912992309F4D7
:103D000048C08FB7F894109229128FBF20913512B6
:103D1000822F90FD84E691FD865F92FD8A5093FD8F
:103D20008F5F94FD8150893C08F088EC8A3008F45C
:103D30008AE0281749F02091301228602093301231
:103D4000809335121092371280912C1295FF09C082
:103D5000803139F4209136122111B5C022E0209330
:103D60003612292F207CA9F0882311F0887189F060
:103D70001091451297FF03C017FFA9C01F7796FF48
:103D800003C016FFA6C01F7B812F0E94170D109342
:103D9000451280912C128C7F09F442CC0E94510E66
:103DA0003FCC82FF19CF886080932E1215CF1092DE
:103DB00030120E947A09892B71F080912E1286FDB3
:103DC0000AC010922E1288E080932C120E94510E8D
:103DD0000E94430417CF10922E1210922C1212CF71
:103DE00097FF0AC0109230120E94310D0E944C19A8
:103DF0000E94560C0E94F40880912E1285FF08C084
:103E00008F77816080932E1280E480932C1220CFD4
:103E100010922E1210922C121BCFA12EB12C189D95
:103E2000C00111248B56994F0E940509962EC72E6A
:103E3000D82E092F9101A2010E94F5478A9C70019A
:103E40008B9CF00C112497012B56394F79011816D1
:103E50008CF59101A201B101C2010E943548F70120
:103E600062A773A784A795A78A9CC0018B9C900D1D
:103E700011249C012B56394F7901F90126A837A846
:103E800040AC51ACA201910162A573A584A595A592
:103E90000E94F54718162CF4F70122A633A644A673
:103EA00055A61F5F143209F410E0292C3C2C4D2C30
:103EB000502E10CF292D3C2D4D2D502F692D7C2DAE
:103EC0008D2D902FCACF20FF4CCF246048CF106893
:103ED00056CF106459CF1F93CF93DF93142F20E058
:103EE00030E040EA51E40E9435480E94BC450E94FF
:103EF0005646EB012097C9F080912D12811115C013
:103F000011110DC00E94991F2FEF80E792E0215000
:103F100080409040E1F700C000002197EBCF0E9465
:103F2000BE1A80912E1281FFEFCFDF91CF911F91AA
:103F30000895CF92DF92EF92FF921F93CF93DF937A
:103F40000E94BE1A80912E12882309F469C00E9433
:103F50007A09009709F03FC0C0914612809145123E
:103F6000C82BC0904712D0904812E0904912F090B0
:103F70004A128091D91381FF03C080E20E94350369
:103F8000DC2FD07311E0C07480912E12882309F4C5
:103F900047C090912D12911143C080FF19C090919C
:103FA0002C12292F207C09F48EC082FD1EC0109295
:103FB000361240E050E0BA0180E00E94E01980E053
:103FC0000E94170D80912E128D7F846080932E1297
:103FD0000E94BE1AD9CFFC01C1A18E5B9F4FFC018C
:103FE000C080D180E280F380C4CF903821F58FEE7D
:103FF00093E00E94AD0680E593E00E94AD060E942A
:10400000C50840E050E0BA0180E00E94E01980E07D
:104010000E94170D0E941F1980912D12882341F0D4
:10402000DF91CF911F91FF90EF90DF90CF90089597
:104030000E94BE1AF1CF903449F40E940E0480FD14
:1040400005C080912E128F7D80932E1280912E12AA
:1040500083FFBECF90914612992359F081FD09C08C
:104060008091D91381FF22C08091301288608093A3
:10407000301280914512882371F080912E1281FDBB
:104080000AC08C2F0E94170D41E060E070E080E8CC
:104090009FE30E946B1F80912E1281FD99CF80615A
:1040A00080932E1282E00E94570392CFB701A6019F
:1040B0008D2F0E94E01941E060E070E080E890E41C
:1040C0000E946B1FD6CF809136128823C9F181FFE1
:1040D0000DC080914612882351F140E050E0BA01B2
:1040E00080E00E94E0191093361272CF8C7009F4B0
:1040F0006FCF80914612882399F08FEE93E00E9453
:10410000AD068AE593E00E94AD060E94C508809145
:10411000D91381FF0FC080913012886080933012D4
:104120008091361283FF03C082E00E9457031092F1
:1041300036124ECFB701A6018D2F0E94E019F0CFA5
:104140008091301283FF44CFB701A6018D2F0E94CA
:10415000E01980913012877F8093301239CF0E940E
:104160008A090E94991F80912D12811108C00E9416
:104170007A09892BB1F780912C12883091F3089538
:10418000CF93DF9321E031E0829FE001839FD00D48
:104190001124DD5F40E051E0BE018EE594E10E9414
:1041A000CC0C892B79F410925E140E94AF2040E071
:1041B00051E06EE574E1CE010E947C0C80E0DF915D
:1041C000CF91089581E0FBCFBF92CF92DF92EF9223
:1041D000FF920F931F93CF93DF93CDB7DEB7A997CD
:1041E0000FB6F894DEBF0FBECDBFB82E0E94AF2031
:1041F00080912D12811178C08E01035E1F4F8DE0DA
:10420000F80111928A95E9F786E089A720E030E06D
:1042100040E450EC6091B8137091B9138091BA13D7
:104220009091BB130E9435486B017C0120E030E087
:10423000A9010E94D34587FF03C0C12CD12C760170
:104240006CEA72E1CE0101960E94D2031092BC1278
:104250001092BD121092BE121092BF12BB2021F01C
:10426000F7FAF094F7F8F094C98ADA8AEB8AFC8AB4
:1042700080E48093321280E090E0A8ECB2E48D8F6D
:104280009E8FAF8FB8A3B801CE0101960E94C315CF
:1042900084E0809330120E94510E0E94430410E487
:1042A00080910901BB2081F18074811110E010938D
:1042B00032120E94510E80912B12847309F446C071
:1042C00010912B1214FF03C086E00E94470315FFD4
:1042D00003C087E00E94470380912A128823B1F02F
:1042E0000E949C1A0E94991FA9960FB6F894DEBFEF
:1042F0000FBECDBFDF91CF911F910F91FF90EF9037
:10430000DF90CF90BF9008958078CFCF84E00E9457
:104310004D030E944C198091E3139091E4130E9485
:1043200015191092BC121092BD121092BE1210926A
:10433000BF12109230120E94991F80912D1281118C
:10434000D3CF0E94560C0E94F408CECF1111A8CFF3
:10435000E0CF0E94AF20109238120895CF92DF92E2
:10436000EF92FF92CF9390912C12923079F06A01E4
:104370007B01C82F0E94AF20B701A6018C2FCF91DF
:10438000FF90EF90DF90CF900C94E019CF91FF90C9
:10439000EF90DF90CF9008950F931F93CF93C82F86
:1043A0008B010E94AF202DE1C29FC00111244CE17E
:1043B00050E0B8019E5FCF911F910F910C947C0C3F
:1043C0001F93CF93DF93182FEB018DE1189FB0015E
:1043D00011247E5F4CE150E0CE010E94CC0C892B71
:1043E00071F48CE1FE0111928A95E9F7BE01812FEB
:1043F0000E94CC2180E0DF91CF911F91089581E050
:10440000FACF8F929F92AF92BF92CF92DF92EF92AC
:10441000FF920F931F93CF93DF93CDB7DEB76C97C7
:104420000FB6F894DEBF0FBECDBF182F80FFB4C10A
:104430008AE08093C41389E18093C7131092C51357
:1044400084E08093C61382E08093C8138AE097EDDE
:10445000A3E2BCE38093C9139093CA13A093CB1338
:10446000B093CC138FE692E1A3E0BBE38093CD132E
:104470009093CE13A093CF13B093D01380E090E429
:10448000ACE1B7E48093D1139093D213A093D313EC
:10449000B093D4131092D5131092D6131092D71351
:1044A0001092D8131092DA1380E090E0A8ECB1E4F7
:1044B0008093DB139093DC13A093DD13B093DE1392
:1044C00080E090E0A6E1B4E48093DF139093E013E2
:1044D000A093E113B093E2138AEF90E09093E4137A
:1044E0008093E31380E090E0A0E0B0E48093E513D4
:1044F0009093E613A093E713B093E81388ED8093AD
:10450000D91380E090E0A0EAB3E480935413909331
:104510005513A0935613B093571380935813909349
:104520005913A0935A13B0935B1380E090E0A0E07E
:10453000B4E480935C1390935D13A0935E13B093E7
:104540005F1380E090E0AAE7B5E480937013909346
:104550007113A0937213B093731380937413909399
:104560007513A0937613B093771380E090E8ABE3D4
:10457000B5E48093781390937913A0937A13B09352
:104580007B1380E096EDA3E8B9E480938C139093BD
:104590008D13A0938E13B0938F13809390139093E9
:1045A0009113A0939213B0939313809394139093C9
:1045B0009513A0939613B093971380E090E0A8EC26
:1045C000B3EC8093A8139093A913A093AA13B0936C
:1045D000AB138093AC139093AD13A093AE13B09331
:1045E000AF138093B0139093B113A093B213B09311
:1045F000B31381E08093E9131092EA131092EB1346
:104600001092EC131092ED131092EE131092EF1320
:104610001092F0131092F11322EFC22E23E1D22E4A
:10462000F12CE12C812C912C30E8A32E3FEBB32E02
:10463000F60181929192A192B1926F01B70190E03F
:1046400080E00E948546F60160A371A382A393A334
:10465000EC5BFF4F6083718382839383FAE0EF0EFC
:10466000F11C8AE5E816F10419F7812C912C80EAF7
:10467000A82E83E4B82E8092601390926113A092CA
:104680006213B092631340E050E06AEF73E440932A
:104690007C1350937D1360937E1370937F13C12C12
:1046A00090EAD92E9CE0E92E97E4F92EC092981357
:1046B000D0929913E0929A13F0929B1380E090E0CD
:1046C000A8E4B3EC8093B4139093B513A093B613FE
:1046D000B093B7138092641390926513A0926613FF
:1046E000B0926713409380135093811360938213A9
:1046F00070938313C0929C13D0929D13E0929E13EB
:10470000F0929F138093B8139093B913A093BA13A8
:10471000B093BB138092681390926913A0926A13AE
:10472000B0926B13C092A013D092A113E092A21387
:10473000F092A313409384135093851360938613D0
:10474000709387138093BC139093BD13A093BE13F3
:10475000B093BF1380926C1390926D13A0926E135E
:10476000B0926F13C092A413D092A513E092A61337
:10477000F092A713409388135093891360938A1380
:1047800070938B138093C0139093C113A093C213A3
:10479000B093C3130E94B70C11FF0FC0FE013196F6
:1047A0007F018CE111928A95E9F700E0B701802F33
:1047B0000E94CC210F5F0830C9F712FF14C060E0DF
:1047C00080E093E00E945C0C60E081E093E00E9456
:1047D0005C0C60E081E094E00E945C0C60E082E0B0
:1047E00094E00E945C0C13FF0AC060E08EEA93E044
:1047F0000E945C0C60E08FEA93E00E945C0C6C9677
:104800000FB6F894DEBF0FBECDBFDF91CF911F91E1
:104810000F91FF90EF90DF90CF90BF90AF909F905F
:104820008F900895BF92CF92DF92EF92FF920F93F5
:104830001F93CF93DF93CDB7DEB7A9970FB6F89448
:10484000DEBF0FBECDBFB82E0E94AF200E94280C45
:1048500080910B01BB2009F49BC08F7E80930B01DC
:1048600080912D12811184C08E01035E1F4F8DE057
:10487000F80111928A95E9F786E089A720E030E0F7
:1048800040E450EC6091BC137091BD138091BE1355
:104890009091BF130E9435486B017C0120E030E00D
:1048A000A9010E94D34587FF03C0C12CD12C7601FA
:1048B0006CEA72E1CE0101960E94D2031092C012FE
:1048C0001092C1121092C2121092C312BB2021F09A
:1048D000F7FAF094F7F8F094CD8ADE8AEF8AF88E32
:1048E00080E88093321280E090E0A8ECB2E48D8FF3
:1048F0009E8FAF8FB8A3B801CE0101960E94C31559
:1049000084E0809330120E94510E0E94430410E80C
:1049100080910901BB20F1F180FF06C080910B015D
:10492000886080930B0110E0109332120E94510EA8
:104930001111EECF0E944C198091E3139091E41372
:104940000E9415191092C0121092C1121092C21238
:104950001092C312109230120E94991F80912D1252
:10496000811106C00E94560C0E94F4080E94330C6C
:10497000A9960FB6F894DEBF0FBECDBFDF91CF91E1
:104980001F910F91FF90EF90DF90CF90BF9008950F
:10499000877F64CF81FFC8CF80910B018061C1CF39
:1049A000EF92FF921F93CF93DF93EC017B018091F5
:1049B000D91385FF22C010912C12103211F1CE01B3
:1049C0000E9460038823C9F081E080932F12183081
:1049D00069F488E00E9457030E94991F80912D126C
:1049E00081110BC080912C128111F6CF0E949C1A6C
:1049F00082E00E9447030E94991F80912C1282300E
:104A0000C1F00E94991F80912D12811112C09091C6
:104A100094068091E502981303C00E948A09F1CFA1
:104A2000B701CE01DF91CF911F91FF90EF900C94D1
:104A3000C315DF91CF911F91FF90EF9008952F92B2
:104A40003F924F925F926F927F928F929F92AF921E
:104A5000BF92CF92DF92EF92FF920F931F93CF936B
:104A6000DF93CDB7DEB7E7970FB6F894DEBF0FBE82
:104A7000CDBF90912D12911114C18DAB9E01235E7B
:104A80003F4F3AAB29AB8DE0D9011D928A95E9F7EA
:104A900086E089A724E5A22E23E1B22EFE01BA9674
:104AA0004F0110E000E0C12CD12C7601FDA92F2E82
:104AB000312C802F0E940E03D4018D934D01C10132
:104AC000002E02C0959587950A94E2F780FF1BC0DF
:104AD00020E030E040EC5FEBF501EC5AFF4F6081E5
:104AE0007181828193810E943548762E472E582EFF
:104AF000692EA70196010E94D34587FD04C0C72CEB
:104B0000D42CE52CF62C0F5F1F4FB4E0AB0EB11C7C
:104B10000730110571F68090DF139090E013A0909C
:104B2000E113B090E21394E0692E01E06CEA72E1C7
:104B3000CE0101960E94D2038091DA13E82FF0E0B3
:104B4000FCABEBABFE0131968CEA482E82E1582E8D
:104B50005FAA4EAA712C10E030E020E0B701A60158
:104B60007058C101022E02C0959587950A94E2F70C
:104B700080FF28C07394AEA9BFA91D921D921D92FB
:104B80001C9213978BA99CA9022E02C0959587951C
:104B90000A94E2F780FF07C0002339F04083518375
:104BA0006283738306C00023C9F3C082D182E2828C
:104BB000F3828AE290E08C0F9D1F820F931FDC012D
:104BC0008C91182B2F5F3F4F34968EA99FA9049686
:104BD0009FAB8EAB2730310521F6672D70E090E05A
:104BE00080E00E9485460E94D44810933212A501AD
:104BF00094010E9435486D8F7E8F8F8F98A3BE01E0
:104C0000635E7F4FCE0101960E94C31594E090939E
:104C100030120E94510E0E9443040023E9F00E94CA
:104C20000C0CFE01BA9630E020E090E06191462F36
:104C3000412359F0AC01022E02C0559547950A94C4
:104C4000E2F740FF02C0609516232F5F3F4F2730E9
:104C5000310561F7109332120E94510E80912B1290
:104C6000847309F47AC010912B1214FF03C086E0FC
:104C70000E94470315FF03C087E00E94470301110C
:104C800082C00E940C0CADA98A2319F088E00E9412
:104C9000470380912A128823E9F00E949C1A0E94FF
:104CA000991FE7960FB6F894DEBF0FBECDBFDF9118
:104CB000CF911F910F91FF90EF90DF90CF90BF9019
:104CC000AF909F908F907F906F905F904F903F90AC
:104CD0002F90089584E00E944D030E944C1980910A
:104CE000E3139091E4130E941519B1E00B27D1F161
:104CF00020E030E040EA50E46091E5137091E61363
:104D00008091E7139091E8130E9435486B017C0174
:104D10008090DB139090DC13A090DD13B090DE1335
:104D20006A94611003CF90E080E09101082E02C0E8
:104D3000359527950A94E2F720FF05C0F20110820D
:104D40001182128213820196F4E04F0E511C8730BB
:104D5000910559F710923012A4CF812F8E7F09F060
:104D60005CCFBBCFC090E513D090E613E090E71383
:104D7000F090E8138090DF139090E013A090E1137F
:104D8000B090E213CDCF12FF84CF89E080CFBF92E5
:104D9000CF92DF92EF92FF920F931F93CF93DF9307
:104DA000CDB7DEB7A9970FB6F894DEBF0FBECDBF63
:104DB000B82E0E94AF2080912D12811178C08E01F3
:104DC000035E1F4F8DE0F80111928A95E9F786E0A6
:104DD00089A720E030E040E450EC6091C01370916E
:104DE000C1138091C2139091C3130E9435486B0187
:104DF0007C0120E030E0A9010E94D34587FF03C079
:104E0000C12CD12C76016CEA72E1CE0101960E9490
:104E1000D2031092C4121092C5121092C6121092B0
:104E2000C712BB2021F0F7FAF094F7F8F094C98E7E
:104E3000DA8EEB8EFC8E82E08093321280E090E07E
:104E4000A8ECB2E48D8F9E8FAF8FB8A3B801CE01CE
:104E500001960E94C31584E0809330120E94510E87
:104E60000E94430412E080910901BB2081F184700B
:104E7000811110E0109332120E94510E80912B127A
:104E8000847309F446C010912B1214FF03C086E00E
:104E90000E94470315FF03C087E00E9447038091EB
:104EA0002A128823B1F00E949C1A0E94991FA99689
:104EB0000FB6F894DEBF0FBECDBFDF91CF911F912B
:104EC0000F91FF90EF90DF90CF90BF900895807288
:104ED000CFCF84E00E944D030E944C198091E313D0
:104EE0009091E4130E9415191092C4121092C512E9
:104EF0001092C6121092C712109230120E94991F7F
:104F000080912D128111D3CF0E94560C0E94F4087B
:104F1000CECF1111A8CFE0CF2F923F924F925F9248
:104F20006F927F928F929F92AF92BF92CF92DF92B9
:104F3000EF92FF920F931F93CF93DF93CDB7DEB71E
:104F4000C256D1090FB6F894DEBF0FBECDBF7C01AB
:104F5000ECE8F2E089E5DF011D928A95E9F78AE045
:104F6000EDE3F2E1ADE8B2E001900D928A95E1F750
:104F7000F7018081843291F01EA61FAA312C212CCA
:104F800027961FAE1EAE27971FAE1FA61BAA44244E
:104F90004394512C7AE0672E712C5EC181E080939E
:104FA0008D0210928E0283E08EA7F1E0FFABE6CF78
:104FB0002FEB200F2BAF2A3110F00C94E4358F5FCC
:104FC0008EA7AE01465D5F4FBE01625D7F4FC70198
:104FD0000E94530B882311F40C94E7358AA49BA4F8
:104FE000ACA4BDA4C501B4010E9418490E94564654
:104FF000162FC62ED12CB6010D2C000C880B990B48
:105000000E9487469B01AC01C501B4010E94DD44AA
:1050100020E030E048EC52E40E9435480E94A2486B
:105020000E945646CB01073409F427C00D3409F419
:105030006EC13BADE32F330FFF0B8827ED5DF74DBE
:105040008F4F0C948E49D7290A2A172A242A4D28D3
:10505000312A4D284D283B2A482A552A622A4D28B4
:10506000662A4D28742A4D287E2A882A922A4D289D
:105070004D284D28A72AB42AC12A183209F4E0C0C5
:1050800030F5143160F4113108F09AC0143009F48D
:1050900074C0B0F01A3009F468C084E198C01C31C3
:1050A00009F463C040F41631C0F725E1211B2093B9
:1050B0008F0226E089C01E3109F457C0163269F705
:1050C000ABA9A1110C94EA35B2E0BBAB28C01D33EB
:1050D00009F4B1C0E0F4153309F44FC088F41B3271
:1050E00011F01133D1F6EBA9E1110C94EA3511332B
:1050F00009F097C01092920228E0F3E0FBAB4FC09A
:105100001C3358F616531093930229E05DC01C35EA
:1051100008F51A3508F075C0103509F0BECF1093A8
:105120008D0221E0163209F04FC08431910551F013
:105130008E31910539F08832910521F08233910545
:1051400009F0ABCFB3010E945849665760938D02B6
:1051500021E025C01C3549F01F3508F09ECF2EE513
:10516000211B20938E0225E02FC0009731F43BA92C
:1051700031110C94EA3541E04BAB10938C02212F96
:105180002D7F2C3119F020E01C35F1F4009719F037
:105190000A9709F082CF610F60938C0220E0C20170
:1051A00002C0880F991F2A95E2F727962EAD3FADD2
:1051B000279728233923232B09F444C085E107C00E
:1051C00011511093910222E0892B49F387E1CE59C6
:1051D000DF4F0FB6F894DEBF0FBECDBFDF91CF918A
:1051E0001F910F91FF90EF90DF90CF90BF90AF9005
:1051F0009F908F907F906F905F904F903F902F90F7
:105200000895892B29F41A551093900223E0C7CFF3
:105210006A30710509F041CF1A3509F43ECF24E018
:10522000BECF0A9709F039CF21E02093920228E0FF
:1052300033E03BABB4CF892B09F02FCF2AE0AFCFBF
:1052400027E0C2CF2796AEADBFAD2797A82BB92BCD
:105250002796BFAFAEAF27978EA5F701E80FF11DD8
:1052600000810111A5CEBFA5BB2329F0EBA9E11157
:1052700002C0F2E0FBAB25FE0FC08091B802909116
:10528000B902A091BA02B091BB0281389649A849EF
:10529000B10514F00C94F6353FA9332309F47EC10F
:1052A00020FE8EC180918F028130B1F423E333E37D
:1052B0004BEC51E4609197027091980280919902B1
:1052C00090919A020E9435486093970270939802D9
:1052D0008093990290939A0230FC10C080914712FB
:1052E00090914812A0914912B0914A128093C40241
:1052F0009093C502A093C602B093C70280918C021E
:10530000843009F078C126FC74C18CE160CF892B10
:1053100009F05CCF163050F4133080F01430C1F037
:1053200080E11530B1F41092960215C01A3078F170
:105330001E3109F0B2CE1093940204C0112321F063
:105340001130C9F78BE008C0B3E0B0939402FACFF4
:1053500080E2809396028CE0F20102C0EE0FFF1F04
:105360008A95E2F7CF0127962EAD3FAD27972E23E2
:105370003923232B09F022CF27962EAD3FAD279757
:105380002E2B392B27963FAF2EAF279765CF18309E
:1053900039F0193049F080E8173019F08DE0DCCF92
:1053A00080E480939502FACF10929502F7CF809215
:1053B000D5029092D602A092D702B092D8024FA501
:1053C00048604FA78DE08201082E02C0000F111F18
:1053D0000A94E2F7980122213321232B11F00C9437
:1053E000F035A1E6B3E002C0B595A7958A95E2F73E
:1053F000A0FF0DC020E030E0A9016AA57BA58CA527
:105400009DA50E94D34587FF02C00C94F335202A46
:10541000312A22CF8092D9029092DA02A092DB0246
:10542000B092DC028FA580618FA78EE0CCCF8092F6
:10543000DD029092DE02A092DF02B092E0029FA510
:1054400090629FA78FE0BFCF8092E1029092E2022C
:10545000A092E302B092E402AFA5A064AFA780E1FE
:10546000B2CF8092970290929802A0929902B09245
:105470009A0280E0A8CF80929B0290929C02A09218
:105480009D02B0929E02BFADB160BFAF81E09BCFE5
:1054900080929F029092A002A092A102B092A202DA
:1054A000EFADE260EFAF82E08ECF8092A3029092E8
:1054B000A402A092A502B092A602FFADF460FFAFD5
:1054C00083E081CF1093B70284E07DCFC501B401A2
:1054D0000E944F466093B8027093B9028093BA025B
:1054E0009093BB0285E06FCF8092BC029092BD0288
:1054F000A092BE02B092BF0286E065CF8092C00249
:105500009092C102A092C202B092C30287E05BCF28
:105510008092C4029092C502A092C602B092C702C5
:1055200088E051CF20E030E040E051E4C501B40113
:105530000E94F547181614F40C94ED358091E91388
:10554000811719F0C6010E94633789E03CCF809231
:10555000C9029092CA02A092CB02B092CC022FA5AF
:1055600021602FA78AE02FCF8092CD029092CE02A9
:10557000A092CF02B092D0023FA532603FA78BE04D
:1055800022CF8092D1029092D202A092D302B09206
:10559000D4024FA544604FA78CE015CF80918E02B6
:1055A000813081F44BA9423009F096CE80918D0272
:1055B000803509F491CE882309F48ECE20FC8CCE60
:1055C00086E105CE80913E12811186CE20FC6ACE06
:1055D00080914B1290914C12A0914D12B0914E12AD
:1055E0008093970290939802A0939902B0939A02A5
:1055F00073CEE89426F880919102882379F0813067
:1056000009F4C1C068961FAE6897A2E06096AFAF7C
:105610006097B1E02E96BFAF2E970BC082E06896E0
:105620008FAF689791E060969FAF60972E961FAE00
:105630002E9780918F02813051F559ECE52E52E082
:10564000F52E10E000E02FA5C22ED12CC601002EB1
:1056500002C0959587950A94E2F780FF10C023E376
:1056600033E34BEC51E4D7016D917D918D919C9189
:105670000E943548F70160837183828393830F5FB3
:105680001F4FF4E0EF0EF11C07301105F9F62BA9BE
:10569000233049F480919202813029F43FA585E2BC
:1056A000343009F094CD8CE1E0E7F2E1DE011196AF
:1056B00001900D928A95E1F727968EAD9FAD2797C1
:1056C00091FD6DC010918C021A3009F47CC01C351C
:1056D00009F422C18BA98330F1F19FA59923D9F157
:1056E000009190028091A8129091A912A091AA1203
:1056F000B091AB128BAF9CAFADAFBEAFBDE3AB2EE5
:10570000B2E1BB2E89ECC82E82E0D82EF12CE12C20
:105710009FA5892E912CC4010E2C02C095958795CA
:105720000A94E2F780FD63C1F5018789908DA18D10
:10573000B28DF60180839183A283B383BFEFEB1A0E
:10574000FB0AE4E0AE0EB11CF4E0CF0ED11C27E062
:10575000E216F10401F71E3109F497C1153309F47B
:10576000BBC16BE972E086E01C3109F02FC10E94D9
:10577000E021882331F13FA531118BC124961FAE62
:1057800024971BAAB1C0E1E06896EFAF68976096D6
:105790001FAE6097F2E02E96FFAF2E974ACF809112
:1057A0009302873010F08DE112CD9091431289174A
:1057B00009F488CFBE016F5F7F4F0E94E021811105
:1057C00081CF87E004CD9FA5911102C08AE1FFCC73
:1057D000C10180759927892B09F497CD6091BC028E
:1057E0007091BD028091BE029091BF020E94184943
:1057F0000E9456466730B8F68091B702843129F08E
:10580000823009F04ACC27FC48CC662309F478C0E2
:10581000615024966FAF24976BE972E024968FADA8
:1058200024970E94E021882361F2B091B702BBAFB8
:105830004090A8125090A9126090AA127090AB12DA
:105840004CE8E42E42E0F42E10E000E0EFA5CE2E6E
:10585000D12CC601002E02C0959587950A94E2F7D7
:1058600080FF37C0F701FD9680809180A280B380D1
:10587000FBADF43109F04AC0F801EE0FFF1FEE0F47
:10588000FF1FE35CFD4EDF01A15BBF4F2D913D91FA
:105890004D915C916789708D818D928D0E94DD4460
:1058A000A50194010E94DD44D7011F966D937D935D
:1058B0008D939C935297023061F4A30192010E9450
:1058C000DD446093A3027093A4028093A502909399
:1058D000A6020F5F1F4FF4E0EF0EF11C0730110519
:1058E00009F0B7CF2FEA222280918D028BAF80354D
:1058F00009F0F9C09FA5992309F4FFC08FE167CC97
:10590000A09193022496AFAF249786CFF7018786A4
:10591000908AA18AB28ADDCF3FA5332309F456CFFE
:105920004090A8125090A9126090AA127090AB12E9
:105930009DE3A92E92E1B92E8E010F5F1F4F29EC36
:10594000C22E22E0D22EF12CE12C832E912CC40108
:105950000E2C02C0959587950A94E2F780FF3AC015
:10596000D8012D913D914D915C91F5016789708D24
:10597000818D928D0E94DD44D6012D913D914D91F6
:105980005C910E94DD44F60160837183828393837E
:10599000F2E0EF120CC0A30192010E94DD4460937B
:1059A000D1027093D2028093D3029093D402FFEF7E
:1059B000EF1AFF0A24E0A20EB11C0C5F1F4F34E067
:1059C000C30ED11C47E0E416F10409F624961FAE7D
:1059D00024978ACFF501E15BFF4F80819181A281FD
:1059E000B381F60180839183A283B383E0CF153323
:1059F00009F4A4CED6014D905D906D907C9001117C
:105A000034C0F701EE0FFF1FEE0FFF1F21E030E063
:105A10002C0F3D1FE20FF31FD501A15BBF4F2D914E
:105A20003D914D915C9160817181828193810E9451
:105A3000DE44A30192010E94DE44D6016D937D9362
:105A40008D939C931397B2E0EB1278CE2BAD3CADC7
:105A50004DAD5EAD0E94DE446093D1027093D202E0
:105A60008093D3029093D40269CEA3019201F501F1
:105A70006789708D818D928D0E94DE44D6016D9371
:105A80007D938D939C93139759CE6BE972E087E0D9
:105A90006ECEADE3B2E1ECE8F2E090E080E04FA53D
:105AA000242F30E0A901082E02C0559547950A948D
:105AB000E2F740FD0AC057964D915D916D917C9142
:105AC0005A974787508B618B728B01961496349648
:105AD0008730910539F77ACF80918D02823008F4B2
